:020000040800F2
:1000000088060020E9010008F1010008F30100085A
:10001000F5010008F7010008F901000800000000E0
:10002000000000000000000000000000FB010008CC
:10003000FD01000800000000FF01000801020008A7
:10004000030200080302000803020008030200087C
:10005000030200080302000803020008030200086C
:10006000030200080302000803020008030200085C
:10007000030200080302000803020008030200084C
:100080000302000803020008030200080000000049
:100090000000000000000000000000000302000853
:1000A000030200080302000803020008030200081C
:1000B000030200080302000803020008030200080C
:1000C00003020008030200080302000803020008FC
:1000D00003020008030200080302000803020008EC
:1000E00003020008030200080302000800000000E9
:1000F0000000000000000000000000000000000000
:1001000000000000000000000000000000000000EF
:1001100000000000000000000302000803020008C5
:1001200000F002F800F050F814A696E8000CB24473
:10013000B344DA4501D100F047F8BAE80F000FA642
:1001400096E83000A5EB040504EB0607AAEB0704CC
:10015000A7F101074FEA15154FEA3414A4F1010481
:10016000AC4201D300F030F813F0010F18BFFB1AB6
:1001700043F0010300F001F8DBE7184768270000AF
:1001800088270000103A24BF78C878C1FAD85207EF
:1001900024BF30C830C144BF04680C607047000001
:1001A000704700000023002400250026103A28BFD5
:1001B00078C1FBD8520728BF30C148BF0B607047D9
:1001C0001FB51FBD10B510BD00F063F81146FFF755
:1001D000F7FF01F06FFA00F081F803B4FFF7F2FFC8
:1001E00003BC00F089F8000009488047094800472F
:1001F000FEE7FEE7FEE7FEE7FEE7FEE7FEE7FEE7D7
:10020000FEE7FEE704480549054A064B7047000033
:10021000E50E000821010008880000208806002063
:10022000880200208802002010B5203AC0F00B8020
:10023000B1E81850A0E81850B1E81850A0E81850DC
:10024000203ABFF4F5AF5FEA027C24BFB1E8185052
:10025000A0E8185044BF18C918C0BDE810405FEAB4
:10026000827C24BF51F8043B40F8043B08BF704730
:10027000D20728BF31F8023B48BF11F8012B28BF35
:1002800020F8023B48BF00F8012B704770477047C9
:100290007047754600F02CF8AE4605006946534697
:1002A00020F00700854618B020B5FFF7ABFFBDE88A
:1002B00020404FF000064FF000074FF000084FF0CD
:1002C000000BAC46ACE8C009ACE8C009ACE8C0091A
:1002D000ACE8C00921F007018D46704710B504460F
:1002E000AFF300802046BDE81040FFF776BF000066
:1002F000004870472000002001491820ABBEFEE7EF
:10030000260002007047000080B5F2B0DDF8D4C1CD
:10031000DDF8D0C1ADF8C601ADF8C41170926F938D
:10032000709800686F99096801F022FA7498006863
:100330007599096801F03EFA41F2F871C0F60001C2
:1003400003A84FF4D872FFF76FFF2C2000F0DCFCFD
:1003500000200290FFE70298082843DCFFE70B200B
:100360000190FFE70198002837D4FFE7019800EBE0
:10037000C00103A800EB8100029950F8210068B980
:10038000FFE79DF8C50100F0EBFC9DF8C40100F00B
:10039000E7FC4FF47A7000F029FF19E0019800EBB8
:1003A000C00103A800EB8100029950F82100012848
:1003B0000DD1FFE79DF8C70100F0D2FC9DF8C60102
:1003C00000F0CEFC4FF47A7000F010FFFFE7FFE77B
:1003D000FFE7019801380190C4E7FFE70298013078
:1003E0000290B8E772B080BD80B5F2B0DDF8D4C13C
:1003F000DDF8D0C1ADF8C601ADF8C41170926F93AD
:10040000709800686F99096801F0B2F974980068F3
:100410007599096801F0CEF941F6A811C0F60001FE
:1004200003A84FF4D872FFF7FFFE2C2000F06CFCFD
:1004300000200290FFE70298082843DCFFE70B202A
:100440000190FFE70198002837D4FFE7019800EBFF
:10045000C00103A800EB8100029950F8210068B99F
:10046000FFE79DF8C50100F07BFC9DF8C40100F09A
:1004700077FC4FF47A7000F0B9FE19E0019800EBB8
:10048000C00103A800EB8100029950F82100012867
:100490000DD1FFE79DF8C70100F062FC9DF8C60191
:1004A00000F05EFC4FF47A7000F0A0FEFFE7FFE77B
:1004B000FFE7019801380190C4E7FFE70298013097
:1004C0000290B8E772B080BD80B5F2B0DDF8D4C15B
:1004D000DDF8D0C1ADF8C601ADF8C41170926F93CC
:1004E000709800686F99096801F042F97498006883
:1004F0007599096801F05EF941F65831C0F60001BE
:1005000003A84FF4D872FFF78FFE2C2000F0FCFBFD
:1005100000200290FFE70298082843DCFFE70B2049
:100520000190FFE70198002837D4FFE7019800EB1E
:10053000C00103A800EB8100029950F8210068B9BE
:10054000FFE79DF8C50100F00BFC9DF8C40100F029
:1005500007FC4FF47A7000F049FE19E0019800EBB7
:10056000C00103A800EB8100029950F82100012886
:100570000DD1FFE79DF8C70100F0F2FB9DF8C60121
:1005800000F0EEFB4FF47A7000F030FEFFE7FFE77B
:10059000FFE7019801380190C4E7FFE702980130B6
:1005A0000290B8E772B080BD88B007900691002035
:1005B0000590049003900290019000900698C078F6
:1005C00000F00F0005900698C078C006002806D5F8
:1005D000FFE706988178059808430590FFE706989D
:1005E000007800284BD0FFE70798006801900020B2
:1005F0000390FFE7039807283DD8FFE70399012000
:100600008840029006980088029908400490049857
:10061000029988422AD1FFE703988000029002994C
:100620000F20884000900099019888430190059818
:10063000029900FA01F10198084301900698C078E8
:10064000282806D1FFE703990120884007994861CF
:100650000BE00698C078482806D1FFE703990120EF
:10066000884007990861FFE7FFE7FFE7FFE7039886
:1006700001300390BEE7019807990860FFE70698EC
:100680000088B0F5807F50DBFFE707984068019055
:1006900000200390FFE70398072842D8FFE703985C
:1006A00000F1080101208840029006980088029914
:1006B000084004900498029988422DD1FFE70398DE
:1006C0008000029002990F208840009000990198C4
:1006D000884301900598029900FA01F101980843B6
:1006E00001900698C078282808D1FFE7039800F108
:1006F00008010120884007994861FFE70698C07803
:10070000482808D1FFE7039800F10801012088403C
:1007100007990861FFE7FFE7FFE7039801300390BF
:10072000B9E7019807994860FFE708B070470000F3
:1007300080B584B00420012100F016F9A020ADF8A6
:100740000C0018208DF80F00032000908DF80E008B
:1007500040F60000C4F20100019003A90291FFF7E6
:1007600023FF009A019802995C23ADF80C30102306
:100770008DF80F308DF80E20FFF716FF04B080BD06
:1007800082B00190ADF80210BDF8020001994861F5
:1007900002B0704782B00190ADF80210BDF80200BF
:1007A0000199086102B0704780B5F2B0DDF8D4C19C
:1007B000DDF8D0C1ADF8C601ADF8C41170926F93E9
:1007C000709800686F99096800F0D2FF749800680B
:1007D0007599096800F0EEFF41F60851C0F6000176
:1007E00003A84FF4D872FFF71FFD2C2000F08CFAFD
:1007F00000200290FFE70298082843DCFFE70B2067
:100800000190FFE70198002837D4FFE7019800EB3B
:10081000C00103A800EB8100029950F8210068B9DB
:10082000FFE79DF8C50100F09BFA9DF8C40100F0B8
:1008300097FA4FF47A7000F0D9FC19E0019800EBB8
:10084000C00103A800EB8100029950F821000128A3
:100850000DD1FFE79DF8C70100F082FA9DF8C601AF
:1008600000F07EFA4FF47A7000F0C0FCFFE7FFE77B
:10087000FFE7019801380190C4E7FFE702980130D3
:100880000290B8E772B080BD80B5F2B0DDF8D4C197
:10089000DDF8D0C1ADF8C601ADF8C41170926F9308
:1008A000709800686F99096800F062FF749800689A
:1008B0007599096800F07EFF41F6B861C0F6000145
:1008C00003A84FF4D872FFF7AFFC2C2000F01CFAFD
:1008D00000200290FFE70298082843DCFFE70B2086
:1008E0000190FFE70198002837D4FFE7019800EB5B
:1008F000C00103A800EB8100029950F8210068B9FB
:10090000FFE79DF8C50100F02BFA9DF8C40100F047
:1009100027FA4FF47A7000F069FC19E0019800EBB7
:10092000C00103A800EB8100029950F821000128C2
:100930000DD1FFE79DF8C70100F012FA9DF8C6013E
:1009400000F00EFA4FF47A7000F050FCFFE7FFE77A
:10095000FFE7019801380190C4E7FFE702980130F2
:100960000290B8E772B080BD82B001908DF803109C
:100970009DF8030048B1FFE7019A41F21801C4F263
:10098000020108681043086008E0019A41F218016A
:10099000C4F20201086890430860FFE702B07047A4
:1009A00080B5F2B0DDF8D4C1DDF8D0C1ADF8C60134
:1009B000ADF8C41170926F93709800686F990968D0
:1009C00000F0D6FE749800687599096800F0F2FE90
:1009D00042F26801C0F6000103A84FF4D872FFF795
:1009E00023FC2C2000F090F900200290FFE70298F1
:1009F000082843DCFFE70B200190FFE7019800285F
:100A000037D4FFE7019800EBC00103A800EB810099
:100A1000029950F8210068B9FFE79DF8C50100F080
:100A20009FF99DF8C40100F09BF94FF47A7000F033
:100A3000DDFB19E0019800EBC00103A800EB810089
:100A4000029950F8210001280DD1FFE79DF8C70158
:100A500000F086F99DF8C60100F082F94FF47A7033
:100A600000F0C4FBFFE7FFE7FFE7019801380190C2
:100A7000C4E7FFE7029801300290B8E772B080BD8A
:100A800080B5F2B0DDF8D4C1DDF8D0C1ADF8C60153
:100A9000ADF8C41170926F93709800686F990968EF
:100AA00000F066FE749800687599096800F082FE8F
:100AB00042F21821C0F6000103A84FF4D872FFF7E4
:100AC000B3FB2C2000F020F900200290FFE70298F1
:100AD000082843DCFFE70B200190FFE7019800287E
:100AE00037D4FFE7019800EBC00103A800EB8100B9
:100AF000029950F8210068B9FFE79DF8C50100F0A0
:100B00002FF99DF8C40100F02BF94FF47A7000F032
:100B10006DFB19E0019800EBC00103A800EB810018
:100B2000029950F8210001280DD1FFE79DF8C70177
:100B300000F016F99DF8C60100F012F94FF47A7032
:100B400000F054FBFFE7FFE7FFE701980138019051
:100B5000C4E7FFE7029801300290B8E772B080BDA9
:100B600080B588B04FF4805001210291FFF7FCFE60
:100B70004FF44040ADF80E004FF48270ADF8100015
:100B80000020ADF81200ADF81400ADF816004FF4D7
:100B90000071ADF818101021ADF81A10ADF81C0056
:100BA0000720ADF81E0043F20000C4F201000190DE
:100BB0000DF10E0100F042F80198029900F002F8E0
:100BC00008B080BD82B001908DF803109DF803003D
:100BD00030B1FFE70199088840F04000088005E047
:100BE0000199088820F040000880FFE702B07047B4
:100BF00082B00190ADF8021000208DF8010001983C
:100C00000089BDF802100840000420B1FFE7012070
:100C10008DF8010003E000208DF80100FFE79DF84A
:100C2000010002B07047000082B00190ADF80210E0
:100C3000BDF802000199888102B0704783B002902C
:100C400001910020ADF8020002980088ADF8020082
:100C5000BDF8020000F44150ADF802000199088887
:100C60004A8810438A881043CA8810430A8910436F
:100C70004A8910438A891043C9890143BDF802009B
:100C80000843ADF80200BDF80200029908800299FD
:100C9000888B20F4006088830198008A029908827A
:100CA00003B0704780B584B040F60000C4F2010084
:100CB000029010210191FFF763FD4FF47A700390C9
:100CC00000F094FA01990298FFF764FD039800F090
:100CD0008DFA02984021FFF75DFD039800F086FA37
:100CE000112000F011F8039800F080FA3A2000F08B
:100CF0000BF8052000F034F8292000F005F80398DF
:100D000000F074FA04B080BD80B582B08DF80700A1
:100D100040F60000C4F2010000900421FFF730FD0E
:100D200000980821FFF72CFD9DF8071043F2000002
:100D3000C4F20100FFF778FFFFE743F20000C4F2BE
:100D400001000221FFF754FF08B9FFE7F5E740F67D
:100D50000000C4F201000421FFF71CFD02B080BDB9
:100D600080B582B08DF8070040F60000C4F20100A3
:100D700000900421FFF704FD00980821FFF70AFD09
:100D80009DF8071043F20000C4F20100FFF74CFF8A
:100D9000FFE743F20000C4F201000221FFF728FF41
:100DA00008B9FFE7F5E740F60000C4F201000421AE
:100DB000FFF7F0FC02B080BD80B500F001F880BD07
:100DC00084B000200390029041F20001C4F20201BD
:100DD000086840F480300860FFE741F20000C4F288
:100DE0000200006800F40030029003980130039084
:100DF000FFE702990020019039B9FFE70398B0F5A9
:100E0000A06018BF01200190FFE70198C0070028EB
:100E1000E3D1FFE741F20000C4F202000068800362
:100E2000002803D5FFE70120029002E00020029095
:100E3000FFE70298012851D1FFE742F20001C4F216
:100E40000201086840F010000860086820F0070000
:100E50000860086840F00200086041F20401C4F232
:100E6000020100910868086008680860086840F49A
:100E700080600860086820F47C100860086840F40E
:100E8000E810086041F20001C4F20201086840F075
:100E900080700860FFE741F20000C4F202000068C1
:100EA0008001002801D4FFE7F5E741F20401C4F214
:100EB0000201086820F003000860086840F00200A2
:100EC0000860FFE741F20400C4F20200006800F08D
:100ED0000C00082801D0FFE7F4E700E0FFE704B0CA
:100EE0007047000080B541F20002C4F202021068AF
:100EF00040F00100106041F20401C4F202010868F0
:100F00000023CFF6FF031840086010684FF6FF7308
:100F1000CFF6F66318401060106820F4802010604F
:100F2000086820F4FE00086041F20801C4F20201E2
:100F30004FF41F000860FFF73FFF4EF60851CEF256
:100F400000014FF00060086080BD000080B5F2B085
:100F5000DDF8D4C1DDF8D0C1ADF8C601ADF8C411DB
:100F600070926F93709800686F99096800F000FCA8
:100F7000749800687599096800F01CFC42F2C83149
:100F8000C0F6000103A84FF4D872FFF74DF92C20EA
:100F9000FFF7BAFE00200290FFE70298082843DC22
:100FA000FFE70B200190FFE70198002837D4FFE707
:100FB000019800EBC00103A800EB8100029950F8F2
:100FC000210068B9FFE79DF8C501FFF7C9FE9DF84C
:100FD000C401FFF7C5FE4FF47A7000F007F919E07D
:100FE000019800EBC00103A800EB8100029950F8C2
:100FF000210001280DD1FFE79DF8C701FFF7B0FEE2
:101000009DF8C601FFF7ACFE4FF47A7000F0EEF8E1
:10101000FFE7FFE7FFE7019801380190C4E7FFE72A
:10102000029801300290B8E772B080BD80B5F2B08E
:10103000DDF8D4C1DDF8D0C1ADF8C601ADF8C411FA
:1010400070926F93709800686F99096800F090FB38
:10105000749800687599096800F0ACFB42F2785109
:10106000C0F6000103A84FF4D872FFF7DDF82C207A
:10107000FFF74AFE00200290FFE70298082843DCB1
:10108000FFE70B200190FFE70198002837D4FFE726
:10109000019800EBC00103A800EB8100029950F811
:1010A000210068B9FFE79DF8C501FFF759FE9DF8DB
:1010B000C401FFF755FE4FF47A7000F097F819E07D
:1010C000019800EBC00103A800EB8100029950F8E1
:1010D000210001280DD1FFE79DF8C701FFF740FE71
:1010E0009DF8C601FFF73CFE4FF47A7000F07EF8E1
:1010F000FFE7FFE7FFE7019801380190C4E7FFE74A
:10110000029801300290B8E772B080BD80B5F2B0AD
:10111000DDF8D4C1DDF8D0C1ADF8C601ADF8C41119
:1011200070926F93709800686F99096800F020FBC7
:10113000749800687599096800F03CFB42F22871C8
:10114000C0F6000103A84FF4D872FFF76DF82C2009
:10115000FFF7DAFD00200290FFE70298082843DC41
:10116000FFE70B200190FFE70198002837D4FFE745
:10117000019800EBC00103A800EB8100029950F830
:10118000210068B9FFE79DF8C501FFF7E9FD9DF86B
:10119000C401FFF7E5FD4FF47A7000F027F819E07D
:1011A000019800EBC00103A800EB8100029950F800
:1011B000210001280DD1FFE79DF8C701FFF7D0FD01
:1011C0009DF8C601FFF7CCFD4FF47A7000F00EF8E1
:1011D000FFE7FFE7FFE7019801380190C4E7FFE769
:1011E000029801300290B8E772B080BD82B00190E1
:1011F00000200090FFE700980199884205DAFFE798
:10120000FFE7009801300090F5E702B0704700005A
:1012100080B59EB0ADF876001C9101201B90FFE7D1
:101220001C981B99405C20B1FFE71B9801301B9074
:10123000F6E700201A901990FFE719981B99884249
:1012400000F33682FFE71C981999405C302824D1BE
:10125000FFE7BDF8760040F20C01C2F200016A46D9
:10126000516040F20801C2F20001116040F2000238
:10127000C2F20002159240F20403C2F20003169378
:101280004FF6FF71FFF742FF159A169910680B3061
:10129000106008680B30086082E11C981999405C66
:1012A000312824D1FFE7BDF8760040F20C01C2F2EC
:1012B00000016A46516040F20801C2F2000111606B
:1012C00040F20002C2F20002139240F20403C2F2A2
:1012D000000314934FF6FF71FFF7D6FA139A14998F
:1012E00010680B30106008680B30086057E11C98DC
:1012F0001999405C322824D1FFE7BDF8760040F20E
:101300000C01C2F200016A46516040F20801C2F2CB
:101310000001116040F20002C2F20002119240F29C
:101320000403C2F2000312934FF6FF71FFF77EFE33
:10133000119A129910680B30106008680B30086021
:101340002CE11C981999405C332824D1FFE7BDF8A3
:10135000760040F20C01C2F200016A46516040F290
:101360000801C2F20001116040F20002C2F2000264
:101370000F9240F20403C2F2000310934FF6FF7184
:10138000FFF7E4FD0F9A109910680B3010600868A1
:101390000B30086001E11C981999405C342824D175
:1013A000FFE7BDF8760040F20C01C2F200016A4688
:1013B000516040F20801C2F20001116040F20002E7
:1013C000C2F200020D9240F20403C2F200030E9337
:1013D0004FF6FF71FFF778F80D9A0E9910680B30F1
:1013E000106008680B300860D6E01C981999405CC2
:1013F000352824D1FFE7BDF8760040F20C01C2F297
:1014000000016A46516040F20801C2F20001116019
:1014100040F20002C2F200020B9240F20403C2F258
:1014200000030C934FF6FF71FEF7DEFF0B9A0C9949
:1014300010680B30106008680B300860ABE01C9837
:101440001999405C362824D1FFE7BDF8760040F2B8
:101450000C01C2F200016A46516040F20801C2F27A
:101460000001116040F20002C2F20002099240F253
:101470000403C2F200030A934FF6FF71FFF700FB6B
:10148000099A0A9910680B30106008680B300860E0
:1014900080E01C981999405C372824D1FFE7BDF8FB
:1014A000760040F20C01C2F200016A46516040F23F
:1014B0000801C2F20001116040F20002C2F2000213
:1014C000079240F20403C2F2000308934FF6FF7143
:1014D000FFF766FA079A089910680B3010600868E1
:1014E0000B30086055E01C981999405C382824D1CD
:1014F000FFE7BDF8760040F20C01C2F200016A4637
:10150000516040F20801C2F20001116040F2000295
:10151000C2F20002059240F20403C2F200030693F5
:101520004FF6FF71FEF7F0FE059A069910680B3032
:10153000106008680B3008602AE01C981999405C1C
:10154000392824D1FFE7BDF8760040F20C01C2F241
:1015500000016A46516040F20801C2F200011160C8
:1015600040F20002C2F20002039240F20403C2F20F
:10157000000304934FF6FF71FFF716F9039A0499DD
:1015800010680B30106008680B300860FFE7FFE759
:10159000FFE7FFE7FFE7FFE7FFE7FFE7FFE7FFE71B
:1015A00040F21800C2F20000006803384AF2E92154
:1015B000C2F68B6180FB0101481000EBD1701890DE
:1015C00040F21400C2F200000068083847F67901C2
:1015D000C7F6780180FB0101C81000EBD1701790AD
:1015E0001998421C189992FBF1F000FB112018BBCE
:1015F000FFE71A98179988421ED0FFE740F20001D2
:10160000C2F200010420086040F20401C2F20001AD
:101610000C20086040F20801C2F20001086811388D
:10162000086040F20C01C2F200010868113808603D
:101630001A9801301A90FFE71998421C189992FBEA
:10164000F1F000FB112070BBFFE71A981799884250
:1016500029D1FFE740F21800C2F20000016840F211
:101660001400C2F2000002684FF6FF7000F044F868
:1016700040F20001C2F200010420086040F20401BF
:10168000C2F200010C20086040F20801C2F2000121
:101690003D20086040F20C01C2F2000148200860C1
:1016A00000201A90FFE7FFE7199801301990C4E570
:1016B0001EB080BD80B582B000200190FFF750FAC7
:1016C000FFF736F8FFF7EEFA40F21800C2F200001A
:1016D000016840F21400C2F2000002684FF6FF7089
:1016E00000F00AF842F6D801C0F600011F20FFF70B
:1016F0008FFDFFE7FEE7000080B586B0ADF816006D
:10170000049103922820FFF7FFFA0499012000902A
:1017100000F02EF80098039900F04CF82C20FFF709
:10172000F3FA00200290FFE70298049988421ADA3F
:10173000FFE700200190FFE70198039988420DDA46
:10174000FFE79DF81700FFF70BFB9DF81600FFF76A
:1017500007FBFFE7019801300190EDE7FFE70298F2
:1017600001300290E0E72920FFF7CEFA06B080BDF5
:1017700080B584B0039002912B20FFF7C5FA0020BA
:101780000090FFF7EDFA039840F28001C2F20001E9
:10179000019109680844C0B2FFF7E2FA0098FFF728
:1017A000DFFA0199029809680844C0B2FFF7D8FA35
:1017B00004B080BD80B584B0039002912A20FFF769
:1017C000A3FA00200090FFF7CBFA039840F2100133
:1017D000C2F20001019109680844C0B2FFF7C0FAE3
:1017E0000098FFF7BDFA0199029809680844C0B251
:1017F000FFF7B6FA04B080BD000000000100000051
:1018000001000000010000000100000001000000D4
:1018100001000000010000000000000001000000C5
:1018200001000000010000000100000001000000B4
:1018300001000000010000000100000001000000A4
:101840000100000001000000000000000000000096
:101850000000000000000000000000000100000087
:101860000100000001000000010000000000000075
:101870000000000000000000000000000000000068
:101880000100000001000000010000000100000054
:101890000000000000000000000000000000000048
:1018A0000000000001000000010000000000000036
:1018B0000100000001000000010000000100000024
:1018C0000100000001000000010000000000000015
:1018D0000000000001000000010000000100000005
:1018E00001000000010000000100000001000000F4
:1018F00000000000010000000100000000000000E6
:1019000000000000000000000000000000000000D7
:1019100001000000010000000100000001000000C3
:1019200000000000000000000000000000000000B7
:1019300000000000010000000100000001000000A4
:101940000100000000000000000000000000000096
:101950000000000000000000010000000100000085
:101960000100000001000000010000000100000073
:101970000100000001000000010000000100000063
:101980000100000000000000010000000100000054
:101990000100000001000000010000000100000043
:1019A0000100000000000000010000000100000034
:1019B0000100000001000000010000000100000023
:1019C0000100000001000000010000000100000013
:1019D0000100000001000000010000000100000003
:1019E00001000000010000000100000001000000F3
:1019F00001000000010000000000000000000000E5
:101A000000000000000000000000000000000000D6
:101A100000000000010000000100000000000000C4
:101A200000000000000000000000000000000000B6
:101A300000000000000000000100000001000000A4
:101A40000000000000000000000000000000000096
:101A50000000000000000000000000000100000085
:101A60000100000001000000010000000100000072
:101A70000100000001000000010000000000000063
:101A80000000000001000000010000000100000053
:101A90000100000001000000010000000100000042
:101AA0000100000000000000000000000000000035
:101AB0000000000000000000000000000000000026
:101AC0000100000001000000000000000000000014
:101AD0000000000000000000000000000000000006
:101AE00000000000010000000100000000000000F4
:101AF00000000000000000000000000000000000E6
:101B000000000000000000000100000001000000D3
:101B100001000000010000000100000001000000C1
:101B200001000000010000000100000001000000B1
:101B300001000000010000000100000001000000A1
:101B40000100000001000000010000000100000091
:101B50000100000000000000010000000100000082
:101B60000000000000000000000000000000000075
:101B70000100000001000000000000000100000062
:101B80000100000000000000000000000000000054
:101B90000000000001000000010000000000000043
:101BA0000100000001000000000000000000000033
:101BB0000000000000000000010000000100000023
:101BC0000000000001000000010000000000000013
:101BD0000000000000000000000000000100000004
:101BE00001000000000000000100000001000000F2
:101BF00000000000000000000000000000000000E5
:101C000001000000010000000000000001000000D1
:101C100001000000010000000100000001000000C0
:101C200001000000010000000100000001000000B0
:101C300000000000010000000100000001000000A1
:101C40000100000001000000010000000100000090
:101C50000100000000000000000000000000000083
:101C60000000000000000000000000000100000073
:101C70000100000000000000000000000000000063
:101C80000000000000000000000000000000000054
:101C90000100000001000000000000000000000042
:101CA0000000000000000000000000000000000034
:101CB0000000000001000000010000000000000022
:101CC0000000000000000000000000000000000014
:101CD0000000000000000000010000000100000002
:101CE00000000000000000000000000000000000F4
:101CF00000000000000000000000000001000000E3
:101D000001000000000000000000000001000000D1
:101D100001000000010000000100000001000000BF
:101D200001000000010000000000000001000000B0
:101D3000010000000100000001000000010000009F
:101D4000010000000100000001000000010000008F
:101D50000100000001000000000000000000000081
:101D60000000000000000000000000000100000072
:101D70000100000001000000010000000000000060
:101D80000000000000000000000000000000000053
:101D9000010000000100000001000000010000003F
:101DA0000000000000000000000000000000000033
:101DB0000000000001000000010000000100000020
:101DC000010000000100000001000000010000000F
:101DD00001000000010000000100000001000000FF
:101DE00000000000010000000100000001000000F0
:101DF00001000000010000000100000001000000DF
:101E000001000000000000000000000000000000D1
:101E100000000000000000000000000000000000C2
:101E200001000000010000000000000000000000B0
:101E300000000000000000000000000000000000A2
:101E40000000000001000000010000000000000090
:101E50000000000000000000000000000000000082
:101E60000000000000000000010000000100000070
:101E7000010000000100000001000000010000005E
:101E8000010000000100000001000000010000004E
:101E9000010000000100000001000000010000003E
:101EA000010000000100000001000000010000002E
:101EB0000100000000000000000000000000000021
:101EC000010000000100000001000000000000000F
:101ED0000000000000000000000000000000000002
:101EE00000000000010000000100000001000000EF
:101EF00000000000000000000000000000000000E2
:101F000000000000000000000000000001000000D0
:101F100001000000000000000000000000000000C0
:101F200000000000000000000000000000000000B1
:101F3000010000000100000000000000000000009F
:101F40000000000000000000000000000000000091
:101F5000000000000100000001000000000000007F
:101F60000000000000000000000000000000000071
:101F7000000000000000000001000000010000005F
:101F80000000000000000000000000000000000051
:101F90000000000000000000000000000100000040
:101FA0000100000000000000000000000000000030
:101FB0000000000000000000000000000000000021
:101FC000010000000100000000000000000000000F
:101FD0000000000000000000000000000000000001
:101FE00000000000010000000100000000000000EF
:101FF00000000000000000000000000000000000E1
:1020000000000000010000000100000001000000CD
:1020100001000000000000000000000000000000BF
:1020200000000000000000000100000001000000AE
:10203000010000000100000000000000000000009E
:10204000000000000000000000000000010000008F
:10205000010000000100000001000000000000007D
:10206000000000000000000000000000010000006F
:10207000010000000100000001000000010000005C
:10208000010000000100000001000000000000004D
:10209000010000000100000001000000010000003C
:1020A000010000000100000001000000010000002C
:1020B0000000000000000000000000000000000020
:1020C000000000000000000000000000010000000F
:1020D00001000000000000000000000000000000FF
:1020E00000000000000000000000000001000000EF
:1020F00001000000000000000000000000000000DF
:1021000000000000000000000000000000000000CF
:1021100001000000010000000000000000000000BD
:1021200000000000000000000000000000000000AF
:10213000010000000100000000000000000000009D
:10214000000000000000000000000000000000008F
:10215000000000000100000001000000000000007D
:10216000000000000000000000000000000000006F
:10217000000000000000000001000000010000005D
:10218000000000000000000000000000000000004F
:10219000000000000000000001000000010000003D
:1021A000000000000000000000000000000000002F
:1021B000000000000000000000000000010000001E
:1021C000010000000000000000000000000000000E
:1021D00000000000000000000000000000000000FF
:1021E00001000000010000000000000000000000ED
:1021F00000000000000000000000000000000000DF
:1022000000000000010000000100000000000000CC
:1022100000000000000000000000000001000000BD
:1022200001000000010000000100000001000000AA
:10223000010000000100000001000000010000009A
:10224000010000000100000001000000010000008A
:10225000010000000100000001000000010000007A
:10226000010000000100000000000000000000006C
:10227000000000000000000000000000000000005E
:10228000000000000100000001000000000000004C
:10229000000000000000000000000000000000003E
:1022A000000000000000000001000000010000002C
:1022B000000000000000000000000000000000001E
:1022C000000000000000000000000000010000000D
:1022D00001000000010000000100000001000000FA
:1022E00001000000010000000100000001000000EA
:1022F00001000000010000000100000001000000DA
:1023000001000000010000000100000001000000C9
:1023100001000000010000000100000000000000BA
:1023200000000000000000000000000000000000AD
:102330000100000001000000010000000100000099
:10234000000000000000000000000000000000008D
:10235000000000000100000001000000010000007A
:10236000010000000000000000000000000000006C
:10237000000000000000000001000000010000005B
:102380000100000001000000010000000100000049
:102390000100000001000000010000000100000039
:1023A000010000000000000001000000010000002A
:1023B0000100000001000000010000000100000019
:1023C000010000000000000001000000010000000A
:1023D00001000000010000000100000001000000F9
:1023E00001000000010000000000000001000000EA
:1023F00001000000010000000100000001000000D9
:1024000001000000010000000100000001000000C8
:1024100000000000000000000000000000000000BC
:1024200000000000000000000000000001000000AB
:10243000010000000000000000000000000000009B
:10244000000000000000000000000000000000008C
:10245000010000000100000000000000000000007A
:10246000000000000000000000000000000000006C
:10247000000000000100000001000000000000005A
:102480000000000001000000010000000100000049
:102490000100000001000000010000000000000039
:1024A000000000000000000001000000010000002A
:1024B0000100000001000000010000000100000018
:1024C000000000000000000000000000000000000C
:1024D00000000000000000000000000000000000FC
:1024E00001000000010000000000000000000000EA
:1024F00000000000000000000000000000000000DC
:1025000000000000010000000100000000000000C9
:1025100000000000000000000000000000000000BB
:1025200000000000000000000100000001000000A9
:102530000100000001000000010000000100000097
:102540000100000001000000010000000100000087
:102550000100000001000000010000000100000077
:102560000100000001000000010000000100000067
:102570000100000000000000010000000100000058
:102580000100000001000000010000000100000047
:102590000100000001000000000000000100000038
:1025A0000100000001000000010000000100000027
:1025B0000100000001000000010000000100000017
:1025C000000000000000000000000000000000000B
:1025D00000000000000000000000000001000000FA
:1025E00001000000000000000000000000000000EA
:1025F00000000000000000000000000000000000DB
:1026000001000000010000000000000000000000C8
:1026100000000000000000000000000000000000BA
:1026200000000000010000000100000000000000A8
:102630000100000001000000010000000100000096
:102640000100000001000000010000000100000086
:102650000100000001000000010000000100000076
:102660000100000001000000010000000100000066
:102670000100000001000000010000000000000057
:10268000000000000000000000000000000000004A
:102690000000000000000000010000000100000038
:1026A000000000000000000000000000000000002A
:1026B0000000000000000000000000000100000019
:1026C0000100000000000000000000000000000009
:1026D00000000000000000000000000000000000FA
:1026E00001000000010000000100000001000000E6
:1026F00001000000010000000100000001000000D6
:1027000001000000010000000100000001000000C5
:1027100001000000010000000100000001000000B5
:1027200001000000010000000000000001000000A6
:102730000100000001000000010000000100000095
:102740000100000001000000000000000100000086
:102750000100000001000000010000000100000075
:102760000100000001000000010000000100000065
:102770000100000001000000000000000000000057
:102780000000000001000000010000000100000046
:102790000100000001000000010000000000000036
:1027A0000000000000000000010000000100000027
:1027B0000100000001000000010000000100000015
:1027C0000000000000000000010000000100000007
:1027D00000000000010000000100000001000000F6
:1027E00001000000000000000000000001000000E7
:1027F00001000000000000000100000001000000D6
:1028000001000000010000000000000001000000C5
:1028100001000000000000000000000001000000B6
:1028200001000000010000000100000000000000A5
:102830000100000001000000000000000000000096
:102840000100000001000000010000000100000084
:102850000100000001000000000000000000000076
:102860000000000001000000010000000100000065
:102870000100000001000000010000000000000055
:102880000000000000000000010000000100000046
:102890000100000001000000010000000100000034
:1028A0000100000001000000010000000100000024
:1028B0000100000000000000010000000100000015
:1028C0000100000001000000010000000100000004
:1028D000010000000000000031313131313131316F
:1028E0000000000004290008000000201C00000077
:1028F000840100082029000820000020680600004C
:10290000A4010008030000000B0000003D000000CF
:10291000480000001900000050000000A000000066
:04000005080001E905
:00000001FF
