:020000040800F2
:1000000070060020E9010008F1010008F301000872
:10001000F5010008F7010008F901000800000000E0
:10002000000000000000000000000000FB010008CC
:10003000FD01000800000000FF01000801020008A7
:10004000030200080302000803020008030200087C
:10005000030200080302000803020008030200086C
:10006000030200080302000803020008030200085C
:10007000030200080302000803020008030200084C
:100080000302000803020008030200080000000049
:100090000000000000000000000000000302000853
:1000A000030200080302000803020008030200081C
:1000B000030200080302000803020008030200080C
:1000C00003020008030200080302000803020008FC
:1000D00003020008030200080302000803020008EC
:1000E00003020008030200080302000800000000E9
:1000F0000000000000000000000000000000000000
:1001000000000000000000000000000000000000EF
:1001100000000000000000000302000803020008C5
:1001200000F002F800F050F814A696E8000CB24473
:10013000B344DA4501D100F047F8BAE80F000FA642
:1001400096E83000A5EB040504EB0607AAEB0704CC
:10015000A7F101074FEA15154FEA3414A4F1010481
:10016000AC4201D300F030F813F0010F18BFFB1AB6
:1001700043F0010300F001F8DBE718479027000087
:10018000B0270000103A24BF78C878C1FAD85207C7
:1001900024BF30C830C144BF04680C607047000001
:1001A000704700000023002400250026103A28BFD5
:1001B00078C1FBD8520728BF30C148BF0B607047D9
:1001C0001FB51FBD10B510BD00F063F81146FFF755
:1001D000F7FF01F0A7FA00F081F803B4FFF7F2FF90
:1001E00003BC00F089F8000009488047094800472F
:1001F000FEE7FEE7FEE7FEE7FEE7FEE7FEE7FEE7D7
:10020000FEE7FEE704480549054A064B7047000033
:100210005D0F00082101000870000020700600201A
:10022000700200207002002010B5203AC0F00B8050
:10023000B1E81850A0E81850B1E81850A0E81850DC
:10024000203ABFF4F5AF5FEA027C24BFB1E8185052
:10025000A0E8185044BF18C918C0BDE810405FEAB4
:10026000827C24BF51F8043B40F8043B08BF704730
:10027000D20728BF31F8023B48BF11F8012B28BF35
:1002800020F8023B48BF00F8012B704770477047C9
:100290007047754600F02CF8AE4605006946534697
:1002A00020F00700854618B020B5FFF7ABFFBDE88A
:1002B00020404FF000064FF000074FF000084FF0CD
:1002C000000BAC46ACE8C009ACE8C009ACE8C0091A
:1002D000ACE8C00921F007018D46704710B504460F
:1002E000AFF300802046BDE81040FFF776BF000066
:1002F000004870471000002001491820ABBEFEE7FF
:10030000260002007047000080B5F2B0DDF8D4C1CD
:10031000DDF8D0C1ADF8C601ADF8C41170926F938D
:10032000709800686F99096801F04AFA749800683B
:100330007599096801F05CFA41F62401C0F60001E4
:1003400003A84FF4D872FFF76FFF2C2000F018FDC0
:1003500000200290FFE70298082843DCFFE70B200B
:100360000190FFE70198002837D4FFE7019800EBE0
:10037000C00103A800EB8100029950F8210068B980
:10038000FFE79DF8C50100F027FD9DF8C40100F0CE
:1003900023FD4FF47A7000F065FF19E0019800EB3F
:1003A000C00103A800EB8100029950F82100012848
:1003B0000DD1FFE79DF8C70100F00EFD9DF8C601C5
:1003C00000F00AFD4FF47A7000F04CFFFFE7FFE702
:1003D000FFE7019801380190C4E7FFE70298013078
:1003E0000290B8E772B080BD80B5F2B0DDF8D4C13C
:1003F000DDF8D0C1ADF8C601ADF8C41170926F93AD
:10040000709800686F99096801F0DAF974980068CB
:100410007599096801F0ECF941F6D411C0F60001B4
:1004200003A84FF4D872FFF7FFFE2C2000F0A8FCC1
:1004300000200290FFE70298082843DCFFE70B202A
:100440000190FFE70198002837D4FFE7019800EBFF
:10045000C00103A800EB8100029950F8210068B99F
:10046000FFE79DF8C50100F0B7FC9DF8C40100F05E
:10047000B3FC4FF47A7000F0F5FE19E0019800EB40
:10048000C00103A800EB8100029950F82100012867
:100490000DD1FFE79DF8C70100F09EFC9DF8C60155
:1004A00000F09AFC4FF47A7000F0DCFEFFE7FFE703
:1004B000FFE7019801380190C4E7FFE70298013097
:1004C0000290B8E772B080BD80B5F2B0DDF8D4C15B
:1004D000DDF8D0C1ADF8C601ADF8C41170926F93CC
:1004E000709800686F99096801F06AF9749800685B
:1004F0007599096801F07CF941F68431C0F6000174
:1005000003A84FF4D872FFF78FFE2C2000F038FCC0
:1005100000200290FFE70298082843DCFFE70B2049
:100520000190FFE70198002837D4FFE7019800EB1E
:10053000C00103A800EB8100029950F8210068B9BE
:10054000FFE79DF8C50100F047FC9DF8C40100F0ED
:1005500043FC4FF47A7000F085FE19E0019800EB3F
:10056000C00103A800EB8100029950F82100012886
:100570000DD1FFE79DF8C70100F02EFC9DF8C601E4
:1005800000F02AFC4FF47A7000F06CFEFFE7FFE702
:10059000FFE7019801380190C4E7FFE702980130B6
:1005A0000290B8E772B080BD88B007900691002035
:1005B0000590049003900290019000900698C078F6
:1005C00000F00F0005900698C078C006002806D5F8
:1005D000FFE706988178059808430590FFE706989D
:1005E000007800284BD0FFE70798006801900020B2
:1005F0000390FFE7039807283DD8FFE70399012000
:100600008840029006980088029908400490049857
:10061000029988422AD1FFE703988000029002994C
:100620000F20884000900099019888430190059818
:10063000029900FA01F10198084301900698C078E8
:10064000282806D1FFE703990120884007994861CF
:100650000BE00698C078482806D1FFE703990120EF
:10066000884007990861FFE7FFE7FFE7FFE7039886
:1006700001300390BEE7019807990860FFE70698EC
:100680000088B0F5807F50DBFFE707984068019055
:1006900000200390FFE70398072842D8FFE703985C
:1006A00000F1080101208840029006980088029914
:1006B000084004900498029988422DD1FFE70398DE
:1006C0008000029002990F208840009000990198C4
:1006D000884301900598029900FA01F101980843B6
:1006E00001900698C078282808D1FFE7039800F108
:1006F00008010120884007994861FFE70698C07803
:10070000482808D1FFE7039800F10801012088403C
:1007100007990861FFE7FFE7FFE7039801300390BF
:10072000B9E7019807994860FFE708B070470000F3
:1007300080B584B00420012100F016F9A020ADF8A6
:100740000C0018208DF80F00032000908DF80E008B
:1007500040F60000C4F20100019003A90291FFF7E6
:1007600023FF009A019802995C23ADF80C30102306
:100770008DF80F308DF80E20FFF716FF04B080BD06
:1007800082B00190ADF80210BDF8020001994861F5
:1007900002B0704782B00190ADF80210BDF80200BF
:1007A0000199086102B0704780B5F2B0DDF8D4C19C
:1007B000DDF8D0C1ADF8C601ADF8C41170926F93E9
:1007C000709800686F99096800F0FAFF74980068E3
:1007D0007599096801F00CF841F63451C0F6000132
:1007E00003A84FF4D872FFF71FFD2C2000F0C8FAC1
:1007F00000200290FFE70298082843DCFFE70B2067
:100800000190FFE70198002837D4FFE7019800EB3B
:10081000C00103A800EB8100029950F8210068B9DB
:10082000FFE79DF8C50100F0D7FA9DF8C40100F07C
:10083000D3FA4FF47A7000F015FD19E0019800EB3F
:10084000C00103A800EB8100029950F821000128A3
:100850000DD1FFE79DF8C70100F0BEFA9DF8C60173
:1008600000F0BAFA4FF47A7000F0FCFCFFE7FFE703
:10087000FFE7019801380190C4E7FFE702980130D3
:100880000290B8E772B080BD80B5F2B0DDF8D4C197
:10089000DDF8D0C1ADF8C601ADF8C41170926F9308
:1008A000709800686F99096800F08AFF7498006872
:1008B0007599096800F09CFF41F6E461C0F60001FB
:1008C00003A84FF4D872FFF7AFFC2C2000F058FAC1
:1008D00000200290FFE70298082843DCFFE70B2086
:1008E0000190FFE70198002837D4FFE7019800EB5B
:1008F000C00103A800EB8100029950F8210068B9FB
:10090000FFE79DF8C50100F067FA9DF8C40100F00B
:1009100063FA4FF47A7000F0A5FC19E0019800EB3F
:10092000C00103A800EB8100029950F821000128C2
:100930000DD1FFE79DF8C70100F04EFA9DF8C60102
:1009400000F04AFA4FF47A7000F08CFCFFE7FFE702
:10095000FFE7019801380190C4E7FFE702980130F2
:100960000290B8E772B080BD82B001908DF803109C
:100970009DF8030048B1FFE7019A41F21801C4F263
:10098000020108681043086008E0019A41F218016A
:10099000C4F20201086890430860FFE702B07047A4
:1009A00080B5F2B0DDF8D4C1DDF8D0C1ADF8C60134
:1009B000ADF8C41170926F93709800686F990968D0
:1009C00000F0FEFE749800687599096800F010FF49
:1009D00042F29401C0F6000103A84FF4D872FFF769
:1009E00023FC2C2000F0CCF900200290FFE70298B5
:1009F000082843DCFFE70B200190FFE7019800285F
:100A000037D4FFE7019800EBC00103A800EB810099
:100A1000029950F8210068B9FFE79DF8C50100F080
:100A2000DBF99DF8C40100F0D7F94FF47A7000F0BB
:100A300019FC19E0019800EBC00103A800EB81004C
:100A4000029950F8210001280DD1FFE79DF8C70158
:100A500000F0C2F99DF8C60100F0BEF94FF47A70BB
:100A600000F000FCFFE7FFE7FFE701980138019085
:100A7000C4E7FFE7029801300290B8E772B080BD8A
:100A800080B5F2B0DDF8D4C1DDF8D0C1ADF8C60153
:100A9000ADF8C41170926F93709800686F990968EF
:100AA00000F08EFE749800687599096800F0A0FE49
:100AB00042F24421C0F6000103A84FF4D872FFF7B8
:100AC000B3FB2C2000F05CF900200290FFE70298B5
:100AD000082843DCFFE70B200190FFE7019800287E
:100AE00037D4FFE7019800EBC00103A800EB8100B9
:100AF000029950F8210068B9FFE79DF8C50100F0A0
:100B00006BF99DF8C40100F067F94FF47A7000F0BA
:100B1000A9FB19E0019800EBC00103A800EB8100DC
:100B2000029950F8210001280DD1FFE79DF8C70177
:100B300000F052F99DF8C60100F04EF94FF47A70BA
:100B400000F090FBFFE7FFE7FFE701980138019015
:100B5000C4E7FFE7029801300290B8E772B080BDA9
:100B600080B588B04FF4805001210291FFF7FCFE60
:100B70004FF44040ADF80E004FF48270ADF8100015
:100B80000020ADF81200ADF81400ADF816004FF4D7
:100B90000071ADF818101021ADF81A10ADF81C0056
:100BA0000720ADF81E0043F20000C4F201000190DE
:100BB0000DF10E0100F042F80198029900F002F8E0
:100BC00008B080BD82B001908DF803109DF803003D
:100BD00030B1FFE70199088840F04000088005E047
:100BE0000199088820F040000880FFE702B07047B4
:100BF00082B00190ADF8021000208DF8010001983C
:100C00000089BDF802100840000420B1FFE7012070
:100C10008DF8010003E000208DF80100FFE79DF84A
:100C2000010002B07047000082B00190ADF80210E0
:100C3000BDF802000199888102B0704783B002902C
:100C400001910020ADF8020002980088ADF8020082
:100C5000BDF8020000F44150ADF802000199088887
:100C60004A8810438A881043CA8810430A8910436F
:100C70004A8910438A891043C9890143BDF802009B
:100C80000843ADF80200BDF80200029908800299FD
:100C9000888B20F4006088830198008A029908827A
:100CA00003B0704780B584B040F60000C4F2010084
:100CB000029010210191FFF763FD4FF47A700390C9
:100CC00000F0D0FA01990298FFF764FD039800F054
:100CD000C9FA02984021FFF75DFD039800F0C2FABF
:100CE000112000F04DF8039800F0BCFA3A2000F013
:100CF00047F8052000F070F8292000F041F803982B
:100D000000F0B0FA04B080BD80B586B0ADF8160032
:100D100004910392282000F033F8049901200090F8
:100D200000F01CFD0098039900F032FD2C2000F02B
:100D300027F800200290FFE70298049988421ADA07
:100D4000FFE700200190FFE70198039988420DDA40
:100D5000FFE79DF8170000F03FF89DF8160000F03F
:100D60003BF8FFE7019801300190EDE7FFE70298BB
:100D700001300290E0E7292000F002F806B080BDC3
:100D800080B582B08DF8070040F60000C4F2010083
:100D900000900421FFF7F4FC00980821FFF7F0FC15
:100DA0009DF8071043F20000C4F20100FFF73CFF7A
:100DB000FFE743F20000C4F201000221FFF718FF31
:100DC00008B9FFE7F5E740F60000C4F2010004218E
:100DD000FFF7E0FC02B080BD80B582B08DF807005F
:100DE00040F60000C4F2010000900421FFF7C8FCA7
:100DF00000980821FFF7CEFC9DF8071043F2000091
:100E0000C4F20100FFF710FFFFE743F20000C4F255
:100E100001000221FFF7ECFE08B9FFE7F5E740F615
:100E20000000C4F201000421FFF7B4FC02B080BD51
:100E300080B500F001F880BD84B0002003900290DE
:100E400041F20001C4F20201086840F480300860F9
:100E5000FFE741F20000C4F20200006800F4003035
:100E60000290039801300390FFE70299002001905F
:100E700039B9FFE70398B0F5A06018BF01200190D1
:100E8000FFE70198C0070028E3D1FFE741F2000027
:100E9000C4F2020000688003002803D5FFE70120A8
:100EA000029002E000200290FFE70298012851D151
:100EB000FFE742F20001C4F20201086840F01000AE
:100EC0000860086820F007000860086840F0020029
:100ED000086041F20401C4F2020100910868086050
:100EE00008680860086840F480600860086820F4BA
:100EF0007C100860086840F4E810086041F20001C6
:100F0000C4F20201086840F080700860FFE741F217
:100F10000000C4F2020000688001002801D4FFE74D
:100F2000F5E741F20401C4F20201086820F0030071
:100F30000860086840F002000860FFE741F2040022
:100F4000C4F20200006800F00C00082801D0FFE79E
:100F5000F4E700E0FFE704B07047000080B541F21D
:100F60000002C4F20202106840F00100106041F279
:100F70000401C4F2020108680023CFF6FF03184001
:100F8000086010684FF6FF73CFF6F66318401060E4
:100F9000106820F480201060086820F4FE000860CB
:100FA00041F20801C4F202014FF41F000860FFF78C
:100FB0003FFF4EF60851CEF200014FF0006008608E
:100FC00080BD000080B5F2B0DDF8D4C1DDF8D0C13D
:100FD000ADF8C601ADF8C41170926F9370980068B7
:100FE0006F99096800F0ECFB7498006875990968BE
:100FF00000F0FEFB42F2F431C0F6000103A84FF40A
:10100000D872FFF711F92C20FFF7BAFE00200290EA
:10101000FFE70298082843DCFFE70B200190FFE779
:101020000198002837D4FFE7019800EBC00103A81E
:1010300000EB8100029950F8210068B9FFE79DF8A4
:10104000C501FFF7C9FE9DF8C401FFF7C5FE4FF4C7
:101050007A7000F007F919E0019800EBC00103A8CD
:1010600000EB8100029950F8210001280DD1FFE723
:101070009DF8C701FFF7B0FE9DF8C601FFF7ACFE73
:101080004FF47A7000F0EEF8FFE7FFE7FFE7019812
:1010900001380190C4E7FFE7029801300290B8E7F9
:1010A00072B080BD80B5F2B0DDF8D4C1DDF8D0C13A
:1010B000ADF8C601ADF8C41170926F9370980068D6
:1010C0006F99096800F07CFB74980068759909684D
:1010D00000F08EFB42F2A451C0F6000103A84FF4C9
:1010E000D872FFF7A1F82C20FFF74AFE00200290EB
:1010F000FFE70298082843DCFFE70B200190FFE799
:101100000198002837D4FFE7019800EBC00103A83D
:1011100000EB8100029950F8210068B9FFE79DF8C3
:10112000C501FFF759FE9DF8C401FFF755FE4FF4C6
:101130007A7000F097F819E0019800EBC00103A85D
:1011400000EB8100029950F8210001280DD1FFE742
:101150009DF8C701FFF740FE9DF8C601FFF73CFE72
:101160004FF47A7000F07EF8FFE7FFE7FFE70198A1
:1011700001380190C4E7FFE7029801300290B8E718
:1011800072B080BD80B5F2B0DDF8D4C1DDF8D0C159
:10119000ADF8C601ADF8C41170926F9370980068F5
:1011A0006F99096800F00CFB7498006875990968DC
:1011B00000F01EFB42F25471C0F6000103A84FF488
:1011C000D872FFF731F82C20FFF7DAFD00200290EB
:1011D000FFE70298082843DCFFE70B200190FFE7B8
:1011E0000198002837D4FFE7019800EBC00103A85D
:1011F00000EB8100029950F8210068B9FFE79DF8E3
:10120000C501FFF7E9FD9DF8C401FFF7E5FD4FF4C7
:101210007A7000F027F819E0019800EBC00103A8EC
:1012200000EB8100029950F8210001280DD1FFE761
:101230009DF8C701FFF7D0FD9DF8C601FFF7CCFD73
:101240004FF47A7000F00EF8FFE7FFE7FFE7019830
:1012500001380190C4E7FFE7029801300290B8E737
:1012600072B080BD82B0019000200090FFE700982E
:101270000199884205DAFFE7FFE700980130009006
:10128000F5E702B07047000080B59AB019900120D0
:101290001890FFE719981899405C20B1FFE718985B
:1012A00001301890F6E7002017901690FFE7169887
:1012B0001899884200F33382FFE719981699405C29
:1012C000302824D1FFE740F20C00C2F2000069464A
:1012D000486040F20800C2F20000086040F20002DC
:1012E000C2F20002149240F20403C2F2000315930A
:1012F00040F2FF704FF6FF71FFF744FF149A159903
:1013000010680B30106008680B30086082E1199893
:101310001699405C312824D1FFE740F20C00C2F25C
:1013200000006946486040F20800C2F20000086010
:1013300040F20002C2F20002129240F20403C2F232
:101340000003139340F2FF704FF6FF71FFF79CFA12
:10135000129A139910680B30106008680B300860FF
:1013600057E119981699405C322824D1FFE740F2E2
:101370000C00C2F200006946486040F20800C2F268
:101380000000086040F20002C2F20002109240F237
:101390000403C2F20003119340F2FF704FF6FF7195
:1013A000FFF780FE109A119910680B3010600868E2
:1013B0000B3008602CE119981699405C332824D131
:1013C000FFE740F20C00C2F200006946486040F2BC
:1013D0000800C2F20000086040F20002C2F20002FF
:1013E0000E9240F20403C2F200030F9340F2FF702A
:1013F0004FF6FF71FFF7E6FD0E9A0F9910680B305C
:10140000106008680B30086001E119981699405C7B
:10141000342824D1FFE740F20C00C2F200006946F4
:10142000486040F20800C2F20000086040F200028A
:10143000C2F200020C9240F20403C2F200030D93C8
:1014400040F2FF704FF6FF71FFF73EF80C9A0D99CE
:1014500010680B30106008680B300860D6E01998EF
:101460001699405C352824D1FFE740F20C00C2F207
:1014700000006946486040F20800C2F200000860BF
:1014800040F20002C2F200020A9240F20403C2F2E9
:1014900000030B9340F2FF704FF6FF71FEF7A4FFBD
:1014A0000A9A0B9910680B30106008680B300860BE
:1014B000ABE019981699405C362824D1FFE740F23A
:1014C0000C00C2F200006946486040F20800C2F217
:1014D0000000086040F20002C2F20002089240F2EE
:1014E0000403C2F20003099340F2FF704FF6FF714C
:1014F000FFF7C6FA089A099910680B30106008685F
:101500000B30086080E019981699405C372824D188
:10151000FFE740F20C00C2F200006946486040F26A
:101520000800C2F20000086040F20002C2F20002AD
:10153000069240F20403C2F20003079340F2FF70E8
:101540004FF6FF71FFF72CFA069A079910680B30D7
:10155000106008680B30086055E019981699405CD7
:10156000382824D1FFE740F20C00C2F2000069469F
:10157000486040F20800C2F20000086040F2000239
:10158000C2F20002049240F20403C2F20003059387
:1015900040F2FF704FF6FF71FEF7B6FE049A059910
:1015A00010680B30106008680B3008602AE019984A
:1015B0001699405C392824D1FFE740F20C00C2F2B2
:1015C00000006946486040F20800C2F2000008606E
:1015D00040F20002C2F20002029240F20403C2F2A0
:1015E0000003039340F2FF704FF6FF71FFF7DCF842
:1015F000029A039910680B30106008680B3008607D
:10160000FFE7FFE7FFE7FFE7FFE7FFE7FFE7FFE7AA
:10161000FFE7FFE7169842F29241C1F2492146F6F0
:10162000B752CBF2DB6200FB02104FEA7000884237
:1016300021D8FFE71698F0B1FFE740F20001C2F2AF
:1016400000010420086040F20401C2F200010C20F5
:10165000086040F20801C2F2000108681138086011
:1016600040F20C01C2F200010868113808601798B6
:1016700001301790FFE719991698085C189A895C51
:10168000884222D1FFE7179803281ED0FFE740F2D7
:101690000001C2F200010420086040F20401C2F21D
:1016A00000010C20086040F20801C2F20001086845
:1016B0001138086040F20C01C2F2000108681138CC
:1016C0000860179801301790FFE71798022821D17A
:1016D000FFE7002017904FF6FF705021A022FFF780
:1016E00013FB40F20001C2F200010420086040F246
:1016F0000401C2F200010C20086040F20801C2F2AD
:1017000000013D20086040F20C01C2F200014820B7
:101710000860FFE7FFE7169801301690C7E51AB09A
:1017200080BD000080B582B000200190FFF718FA5C
:10173000FEF7FEFFFFF7B6FA1F20ADF802004FF6E6
:10174000FF705021A022FFF7DFFA42F60410C0F626
:101750000000FFF799FDFFE7FEE7000080B584B0C9
:10176000039002912A20FFF70BFB00200190FFF766
:1017700033FB03981930C0B2FFF72EFB0198FFF737
:101780002BFB02981930C0B2FFF726FB04B080BDD6
:1017900080B584B0039002912B20FFF7F1FA00206E
:1017A0000190FFF719FB9DF80C00FFF715FB01985E
:1017B000FFF712FB9DF80800FFF70EFB04B080BD99
:1017C00080B584B0039002912B20FFF7D9FA002056
:1017D0000190FFF701FB9DF80C00FFF7FDFA01985F
:1017E000FFF7FAFA9DF80800FFF7F6FA04B080BD9B
:1017F00080B584B0039002912A20FFF7C1FA00203F
:101800000190FFF7E9FA03981930C0B2FFF7E4FA44
:101810000198FFF7E1FA02981930C0B2FFF7DCFA3D
:1018200004B080BD000000000100000001000000C5
:1018300001000000010000000100000001000000A4
:101840000100000000000000010000000100000095
:101850000100000001000000010000000100000084
:101860000100000001000000010000000100000074
:101870000100000000000000000000000000000067
:101880000000000000000000010000000100000056
:101890000100000001000000000000000000000046
:1018A0000000000000000000000000000100000037
:1018B0000100000001000000010000000000000025
:1018C0000000000000000000000000000000000018
:1018D0000100000001000000000000000100000005
:1018E00001000000010000000100000001000000F4
:1018F00001000000010000000000000000000000E6
:1019000001000000010000000100000001000000D3
:1019100001000000010000000100000000000000C4
:1019200001000000010000000000000000000000B5
:1019300000000000000000000000000001000000A6
:101940000100000001000000010000000000000094
:101950000000000000000000000000000000000087
:101960000100000001000000010000000100000073
:101970000000000000000000000000000000000067
:101980000000000001000000010000000100000054
:101990000100000001000000010000000100000043
:1019A0000100000001000000010000000100000033
:1019B0000000000001000000010000000100000024
:1019C0000100000001000000010000000100000013
:1019D0000000000001000000010000000100000004
:1019E00001000000010000000100000001000000F3
:1019F00001000000010000000100000001000000E3
:101A000001000000010000000100000001000000D2
:101A100001000000010000000100000001000000C2
:101A200001000000000000000000000000000000B5
:101A300000000000000000000000000000000000A6
:101A40000100000001000000000000000000000094
:101A50000000000000000000000000000000000086
:101A60000000000001000000010000000000000074
:101A70000000000000000000000000000000000066
:101A80000000000000000000010000000100000054
:101A90000100000001000000010000000100000042
:101AA0000100000001000000000000000000000034
:101AB0000100000001000000010000000100000022
:101AC0000100000001000000010000000100000012
:101AD0000000000000000000000000000000000006
:101AE00000000000000000000000000001000000F5
:101AF00001000000000000000000000000000000E5
:101B000000000000000000000000000000000000D5
:101B100001000000010000000000000000000000C3
:101B200000000000000000000000000000000000B5
:101B300000000000010000000100000001000000A2
:101B40000100000001000000010000000100000091
:101B50000100000001000000010000000100000081
:101B60000100000001000000010000000100000071
:101B70000100000001000000010000000100000061
:101B80000000000001000000010000000000000053
:101B90000000000000000000000000000100000044
:101BA0000100000000000000010000000100000032
:101BB0000000000000000000000000000000000025
:101BC0000100000001000000000000000100000012
:101BD0000100000000000000000000000000000004
:101BE00000000000010000000100000000000000F3
:101BF00001000000010000000000000000000000E3
:101C000000000000000000000100000001000000D2
:101C100000000000010000000100000000000000C2
:101C200000000000000000000000000001000000B3
:101C300001000000000000000100000001000000A1
:101C40000100000001000000010000000100000090
:101C50000100000001000000010000000000000081
:101C60000100000001000000010000000100000070
:101C70000100000001000000010000000100000060
:101C80000000000000000000000000000000000054
:101C90000000000000000000010000000100000042
:101CA0000000000000000000000000000000000034
:101CB0000000000000000000000000000100000023
:101CC0000100000000000000000000000000000013
:101CD0000000000000000000000000000000000004
:101CE00001000000010000000000000000000000F2
:101CF00000000000000000000000000000000000E4
:101D000000000000010000000100000000000000D1
:101D100000000000000000000000000000000000C3
:101D200000000000000000000100000001000000B1
:101D300000000000000000000100000001000000A1
:101D4000010000000100000001000000010000008F
:101D50000100000000000000010000000100000080
:101D6000010000000100000001000000010000006F
:101D7000010000000100000001000000010000005F
:101D80000100000000000000000000000000000052
:101D90000000000000000000010000000100000041
:101DA0000100000001000000000000000000000031
:101DB0000000000000000000000000000100000022
:101DC0000100000001000000010000000000000010
:101DD0000000000000000000000000000000000003
:101DE00001000000010000000100000001000000EF
:101DF00001000000010000000100000001000000DF
:101E000001000000010000000100000000000000CF
:101E100001000000010000000100000001000000BE
:101E200001000000010000000100000001000000AE
:101E300000000000000000000000000000000000A2
:101E40000000000000000000000000000100000091
:101E50000100000000000000000000000000000081
:101E60000000000000000000000000000000000072
:101E70000100000001000000000000000000000060
:101E80000000000000000000000000000000000052
:101E9000000000000100000001000000010000003F
:101EA000010000000100000001000000010000002E
:101EB000010000000100000001000000010000001E
:101EC000010000000100000001000000010000000E
:101ED00001000000010000000100000001000000FE
:101EE00000000000000000000000000001000000F1
:101EF00001000000010000000000000000000000E0
:101F000000000000000000000000000000000000D1
:101F100001000000010000000100000000000000BE
:101F200000000000000000000000000000000000B1
:101F3000000000000000000001000000010000009F
:101F40000000000000000000000000000000000091
:101F50000000000000000000000000000100000080
:101F60000100000000000000000000000000000070
:101F70000000000000000000000000000000000061
:101F8000010000000100000000000000000000004F
:101F90000000000000000000000000000000000041
:101FA000000000000100000001000000000000002F
:101FB0000000000000000000000000000000000021
:101FC000000000000000000001000000010000000F
:101FD0000000000000000000000000000000000001
:101FE00000000000000000000000000001000000F0
:101FF00001000000000000000000000000000000E0
:1020000000000000000000000000000000000000D0
:1020100001000000010000000000000000000000BE
:1020200000000000000000000000000000000000B0
:10203000010000000100000001000000010000009C
:102040000000000000000000000000000000000090
:10205000000000000100000001000000010000007D
:10206000010000000000000000000000000000006F
:10207000000000000000000001000000010000005E
:10208000010000000100000000000000000000004E
:10209000000000000000000001000000010000003E
:1020A000010000000100000001000000010000002C
:1020B000010000000100000000000000010000001D
:1020C000010000000100000001000000010000000C
:1020D00001000000010000000100000000000000FD
:1020E00000000000000000000000000000000000F0
:1020F00000000000000000000100000001000000DE
:1021000000000000000000000000000000000000CF
:1021100000000000000000000100000001000000BD
:1021200000000000000000000000000000000000AF
:10213000000000000000000000000000010000009E
:10214000010000000000000000000000000000008E
:10215000000000000000000000000000010000007E
:10216000010000000000000000000000000000006E
:10217000000000000000000000000000000000005F
:10218000010000000100000000000000000000004D
:10219000000000000000000000000000000000003F
:1021A000000000000100000001000000000000002D
:1021B000000000000000000000000000000000001F
:1021C000000000000100000001000000000000000D
:1021D00000000000000000000000000000000000FF
:1021E00000000000000000000100000001000000ED
:1021F00000000000000000000000000000000000DF
:1022000000000000000000000000000001000000CD
:1022100001000000000000000000000000000000BD
:1022200000000000000000000000000000000000AE
:10223000010000000100000000000000000000009C
:10224000000000000000000001000000010000008C
:10225000010000000100000001000000010000007A
:10226000010000000100000001000000010000006A
:10227000010000000100000001000000010000005A
:10228000010000000100000001000000010000004A
:10229000010000000000000000000000000000003D
:1022A000000000000000000000000000000000002E
:1022B000010000000100000000000000000000001C
:1022C000000000000000000000000000000000000E
:1022D00000000000010000000100000000000000FC
:1022E00000000000000000000000000000000000EE
:1022F00000000000000000000100000001000000DC
:1023000001000000010000000100000001000000C9
:1023100001000000010000000100000001000000B9
:1023200001000000010000000100000001000000A9
:102330000100000001000000010000000100000099
:10234000010000000100000000000000000000008B
:10235000000000000000000000000000010000007C
:10236000010000000100000001000000000000006A
:10237000000000000000000000000000000000005D
:102380000100000001000000010000000100000049
:10239000000000000000000000000000000000003D
:1023A000000000000100000001000000010000002A
:1023B0000100000001000000010000000100000019
:1023C0000100000001000000010000000100000009
:1023D00000000000010000000100000001000000FA
:1023E00001000000010000000100000001000000E9
:1023F00000000000010000000100000001000000DA
:1024000001000000010000000100000001000000C8
:1024100001000000000000000100000001000000B9
:1024200001000000010000000100000001000000A8
:102430000100000001000000010000000000000099
:10244000000000000000000000000000000000008C
:10245000000000000000000001000000010000007A
:10246000000000000000000000000000000000006C
:10247000000000000000000000000000010000005B
:10248000010000000000000000000000000000004B
:10249000000000000000000000000000000000003C
:1024A000010000000100000000000000000000002A
:1024B0000100000001000000010000000100000018
:1024C000010000000100000000000000000000000A
:1024D00000000000010000000100000001000000F9
:1024E00001000000010000000100000000000000E9
:1024F00000000000000000000000000000000000DC
:1025000000000000000000000000000001000000CA
:1025100001000000000000000000000000000000BA
:1025200000000000000000000000000000000000AB
:102530000100000001000000000000000000000099
:10254000000000000000000000000000000000008B
:102550000000000001000000010000000100000078
:102560000100000001000000010000000100000067
:102570000100000001000000010000000100000057
:102580000100000001000000010000000100000047
:102590000100000001000000010000000100000037
:1025A0000000000001000000010000000100000028
:1025B0000100000001000000010000000100000017
:1025C0000100000000000000010000000100000008
:1025D00001000000010000000100000001000000F7
:1025E00001000000010000000100000000000000E8
:1025F00000000000000000000000000000000000DB
:1026000000000000000000000100000001000000C8
:1026100000000000000000000000000000000000BA
:1026200000000000000000000000000001000000A9
:102630000100000000000000000000000000000099
:10264000000000000000000000000000000000008A
:102650000100000001000000000000000100000077
:102660000100000001000000010000000100000066
:102670000100000001000000010000000100000056
:102680000100000001000000010000000100000046
:102690000100000001000000010000000100000036
:1026A0000100000001000000000000000000000028
:1026B000000000000000000000000000000000001A
:1026C0000000000001000000010000000000000008
:1026D00000000000000000000000000000000000FA
:1026E00000000000000000000100000001000000E8
:1026F00000000000000000000000000000000000DA
:1027000000000000000000000000000001000000C8
:1027100001000000010000000100000001000000B5
:1027200001000000010000000100000001000000A5
:102730000100000001000000010000000100000095
:102740000100000001000000010000000100000085
:102750000100000000000000010000000100000076
:102760000100000001000000010000000100000065
:102770000100000000000000010000000100000056
:102780000100000001000000010000000100000045
:102790000100000001000000010000000100000035
:1027A0000100000000000000000000000000000028
:1027B0000100000001000000010000000100000015
:1027C0000100000001000000000000000000000007
:1027D00000000000010000000100000001000000F6
:1027E00001000000010000000100000000000000E6
:1027F00000000000010000000100000000000000D7
:1028000001000000010000000100000001000000C4
:1028100000000000000000000100000001000000B6
:1028200000000000010000000100000001000000A5
:102830000100000000000000010000000100000095
:102840000000000000000000010000000100000086
:102850000100000001000000000000000100000075
:102860000100000000000000000000000100000066
:102870000100000001000000010000000100000054
:102880000100000000000000000000000000000047
:102890000100000001000000010000000100000034
:1028A0000100000001000000000000000000000026
:1028B0000000000001000000010000000100000015
:1028C0000100000001000000010000000100000004
:1028D00001000000010000000100000001000000F4
:1028E00000000000010000000100000001000000E5
:1028F00001000000010000000100000001000000D4
:102900000000000039383735343738002C290008EA
:102910000000002010000000840100083C2900088D
:102920001000002060060000A40100080400000060
:0C2930000C0000003D000000480000000A
:04000005080001E905
:00000001FF
